S0150000496E746572727570745F4C45442E737265630E
S113000045C0000074C0000051C000004FC0000093
S11300104DC000004BC0000049C0000047C00000B4
S113002045C0000043C0000041C000003FC00000C4
S11300303DC000003BC0000039C0000037C00000D4
S113004035C0000033C0000031C000002FC00000E4
S11300502DC000002BC0000029C0000027C00000F4
S113006025C0000023C0000021C000001FC0000004
S11300701DC000001BC0000019C0000017C0000014
S113008015C0000013C0000011C0000011241FBEE1
S1130090CFEFD0E1DEBFCDBF21E0A0E0B1E001C0F1
S11300A01D92A130B207E1F702D039C0A9CF8EEF7B
S11300B081BB8FEF82B98FE080936A001ABE81E022
S11300C089BF88BF789483B990910001911105C0CC
S11300D0803811F0880F01C081E02FEF31EE94E0F9
S11300E0215030409040E1F700C00000ECCF1F9257
S11300F00F920FB60F9211248F93F8948091000100
S1130100811104C081E08093000103C010920001BA
S113011078948F910F900FBE0F901F901895F894BC
S1050120FFCF0B
S9030000FC
