:1000000045C00000F3C0000009C100005CC0000052
:100010005AC0000058C0000056C0000054C0000084
:1000200052C0000050C000004EC000004CC0000094
:100030004AC0000048C0000046C0000044C00000A4
:1000400042C0000040C000003EC000003CC00000B4
:100050003AC0000038C0000036C0000034C00000C4
:1000600032C0000030C000002EC000002CC00000D4
:100070002AC0000028C0000026C0000024C00000E4
:1000800022C0000020C000001EC0000011241FBEBE
:10009000CFEFD0E1DEBFCDBF11E0A0E0B1E0E8E4FA
:1000A000F2E000E00BBF02C007900D92A231B10751
:1000B000D9F721E0A2E1B1E001C01D92A731B2075A
:1000C000E1F702D0BFC09CCFCF93DF93CDB7DEB7AF
:1000D00061970FB6F894DEBF0FBECDBF81E1E0E0BF
:1000E000F1E0DE01119601900D928A95E1F78CEF17
:1000F00081BB8FE0809364009FEF92B980936A0088
:100100001ABE83E089BF88BF7894E5E6F0E087E017
:10011000808380911501A1E0B0E0AC0FBD1FA80F56
:10012000B11D8C9183B987EA91E60197F1F700C080
:1001300000008BE080838DE0808380911401A1E03A
:10014000B0E0AC0FBD1FA80FB11D8C9183B99FE328
:100150002DE083E0915020408040E1F700C0000096
:100160008EE0808380911301E1E0F0E0EC0FFD1F51
:10017000E80FF11D808183B99FE32DE083E091506A
:1001800020408040E1F700C00000809112018130E2
:1001900009F4BBCF809116018F5F809316018A30DE
:1001A00039F410921601809115018F5F809315012B
:1001B000809115018A3039F4109215018091140153
:1001C0008F5F80931401809114018A3039F410926A
:1001D0001401809113018F5F8093130180911301AB
:1001E0008A3009F092CF109213018FCF1F920F9295
:1001F0000FB60F9211248F93F89480911201811100
:1002000004C081E08093120102C010921201789420
:100210008F910F900FBE0F901F9018951F920F9205
:100220000FB60F921124F894109216011092150136
:10023000109214011092130178940F900FBE0F903A
:080240001F901895F894FFCF00
:100248003F065B4F666D7C077F67777C395E790870
:02025800800024
:00000001FF
