:1000000045C0000058C0000056C0000054C00000A9
:1000100052C0000050C000004EC000004CC00000A4
:100020004AC0000048C0000046C0000044C00000B4
:1000300042C0000040C000003EC000003CC00000C4
:100040003AC0000038C0000036C0000034C00000D4
:1000500032C0000030C000002EC000002CC00000E4
:100060002AC0000028C0000026C0000024C00000F4
:1000700022C0000020C000001EC000001CC0000004
:100080001AC0000018C0000016C0000011241FBED6
:10009000CFEFD0E1DEBFCDBF11E0A0E0B1E0E6E4FC
:1000A000F1E000E00BBF02C007900D92A231B10752
:1000B000D9F734D046C0A4CFCF93DF93CDB7DEB706
:1000C00062970FB6F894DEBF0FBECDBF22E1E0E02D
:1000D000F1E0DE01119601900D922A95E1F7E1E041
:1000E000F0E0EC0FFD1FE80FF91F808188BB8081D5
:1000F00082BB62960FB6F894DEBF0FBECDBFDF9114
:10010000CF91089507C0EFE3FCE93197F1F700C004
:100110000000019686179707B4F308958FEF87BB09
:1001200081BBC0E0D0E0CE01C7DF2196C231D1054E
:1001300010F0C0E0D0E062E370E080E090E0E2DF49
:06014000F2CFF894FFCF9E
:100146003F065B4F666D7C077F67777C395E79710A
:0201560008801F
:00000001FF
