:1000000045C0000060C000005EC000005CC0000091
:100010005AC0000058C0000056C0000054C0000084
:1000200052C0000050C000004EC000004CC0000094
:100030004AC0000048C0000046C0000044C00000A4
:1000400043C0000040C000003EC000003CC00000B3
:100050003AC0000038C0000036C0000034C00000C4
:1000600032C0000030C000002EC000002CC00000D4
:100070002AC0000028C0000026C0000024C00000E4
:1000800022C0000020C000001EC0000011241FBEBE
:10009000CFEFD0E1DEBFCDBF11E0A0E0B1E0EAEBF1
:1000A000F2E000E00BBF02C007900D92A231B10751
:1000B000D9F721E0A2E1B1E001C01D92A731B2075A
:1000C000E1F769D0F8C09CCF1F920F920FB60F9244
:1000D00011242F938F939F93F8948FEA82BF80917E
:1000E00012018F5F809312018A3591F410921201F0
:1000F000349BFECF24B12093160185B18093150166
:1001000090E0982F8827822B9093140180931301FD
:1001100078949F918F912F910F900FBE0F901F9009
:1001200018958130B9F0F8F0823059F0833021F51C
:10013000E5E6F0E08081807F808380818E6080832F
:1001400023C0E5E6F0E08081807F808380818D6040
:1001500080831AC0E5E6F0E08081807F8083808123
:100160008B60808311C0E5E6F0E08081807F808332
:1001700080818760808308C0E5E6F0E08081807F31
:10018000808380818F608083E62FF0E0E050FF4F16
:10019000808183B908958FEF82B913B88FE080937F
:1001A00064008093650087E083BF8FEA82BF87B7D2
:1001B000816087BF86B7816086BF80EC87B986EA99
:1001C00086B986B1806486B97894409113015091C4
:1001D00014019A01ADECBCEC5FD09695879596958D
:1001E000879596958795BC01660F771F880F991F95
:1001F000880F991F880F991F860F971F281B390B8F
:10020000622F80E08EDF8FEA94E00197F1F700C063
:1002100000002091130130911401ADECBCEC3CD0F6
:10022000AC015695479556954795569547959A0131
:1002300033D0969587959695879596958795BC0129
:10024000660F771F880F991F880F991F880F991FB6
:10025000860F971F281B390B622F81E062DF8FEA20
:1002600094E00197F1F700C0000020911301309154
:1002700014013695279536952795ABE7B4E10CD058
:1002800096958795682F82E04CDF8FEA94E001977E
:10029000F1F700C0000099CFA29FB001B39FC00149
:1002A000A39F700D811D1124911DB29F700D811DA2
:0A02B0001124911D0895F894FFCF6A
:1002BA003F065B4F666D7C077F67777C395E797195
:0202CA000880AA
:00000001FF
