:1000000045C0000077C000005EC000005CC000007A
:100010005AC0000058C0000056C0000054C0000084
:1000200052C0000050C000004EC000004CC0000094
:100030004AC0000048C0000046C0000044C00000A4
:1000400079C0000040C000003EC000003CC000007D
:100050003AC0000038C0000036C0000034C00000C4
:1000600032C0000030C000002EC000002CC00000D4
:100070002AC0000028C0000026C0000024C00000E4
:1000800022C0000020C000001EC0000011241FBEBE
:10009000CFEFD0E1DEBFCDBF11E0A0E0B1E0ECEDED
:1000A000F1E000E00BBF02C007900D92AA30B1074B
:1000B000D9F721E0AAE0B1E001C01D92AD30B2074E
:1000C000E1F702D089C09CCF84B38F6084BB82E00B
:1000D00080936A001ABE81E089BF88BF87E083BF32
:1000E0008FE582BF87B7816087BF86B7816086BF93
:1000F0007894FFCF1F920F920FB60F9211248F9317
:100100009F93F8941092080180910B01823051F472
:1001100081E090910901913009F480E08093090118
:1001200010920B0178949F918F910F900FBE0F90BA
:100130001F9018951F920F920FB60F9211240BB6B5
:100140000F928F939F93EF93FF93F8948FE582BF65
:1001500080910801811105C080910A018F5F809311
:100160000A0180910A018A3051F481E080930801EC
:1001700010920A0180910B018F5F80930B01E09137
:100180000C01F0E0E050FF4F808185BB80910901B8
:10019000813059F480910C0191E0980F90930C01FB
:1001A000873079F410920C010CC080910C019FEF04
:1001B000980F90930C01811103C087E080930C018C
:1001C0007894FF91EF919F918F910F900BBE0F90BC
:0C01D0000FBE0F901F901895F894FFCF01
:0A01DC00080C0406020301090101EA
:00000001FF
