S011000050776D5F5049455A4F2E73726563F9
S113000045C000004BC0000049C0000047C00000CC
S113001045C0000043C0000041C000003FC00000D4
S11300203DC000003BC0000039C0000037C00000E4
S113003035C0000033C0000031C000002FC00000F4
S11300402DC000002BC0000029C0000027C0000004
S113005025C0000023C0000021C000001FC0000014
S11300601DC000001BC0000019C0000017C0000024
S113007015C0000013C0000011C000000FC0000034
S11300800DC000000BC0000009C0000011241FBEF9
S1130090CFEFD0E1DEBFCDBF7AD0D0C0B1CF0F93C8
S11300A01F93CF93DF938C01EBE8F0E080818064B1
S11300B08083EAE8F0E0808189618083C0918800D0
S11300C0D09189009801220F331F40E050E060E096
S11300D070E880E790E074D0C217D30778F73093C4
S11300E0810020938000DF91CF911F910F9108959B
S11300F010928B0010928A0010928900109288004E
S113010060E070E880E790E020E030E0A90158D09A
S113011030938100209380008FEF83B9089580B3DA
S11301208111FDCF089580B38823E9F380B3089546
S11301308830D9F038F4823091F0843099F08130ED
S113014059F422C08032B9F018F4803189F004C027
S11301508034A1F08038A9F080E090E008958BE429
S113016092E0089583E992E008958AEB92E008957D
S11301708FE093E0089580E793E008958BED93E09A
S1130180089586E194E008958BE092E0089588E074
S113019082B9EBE8F0E0808180648083EAE8F0E0F3
S11301A080818961808310928C0010928900109262
S11301B088009EDFB8DFBCDF72DFB1DF99DFFACFE2
S11301C0052E97FB16F400940FD057FD05D014D0DC
S11301D007FC02D046F408C050954095309521950F
S11301E03F4F4F4F5F4F089590958095709561955F
S11301F07F4F8F4F9F4F0895A1E21A2EAA1BBB1B5E
S1130200FD010DC0AA1FBB1FEE1FFF1FA217B307DE
S1130210E407F50720F0A21BB30BE40BF50B661FF4
S1130220771F881F991F1A9469F7609570958095B8
S113023090959B01AC01BD01CF010895F894FFCFC7
S9030000FC
