:1000000045C0000060C000005EC000005CC0000091
:100010005AC0000058C0000056C0000054C0000084
:1000200052C0000050C000004EC000004CC0000094
:100030004AC0000048C0000046C0000044C00000A4
:1000400042C0000040C000003EC000003CC00000B4
:100050003AC0000038C0000036C0000034C00000C4
:1000600032C0000030C000002EC000002CC00000D4
:100070002AC0000028C0000026C0000024C00000E4
:1000800022C0000020C000001EC0000011241FBEBE
:10009000CFEFD0E1DEBFCDBF11E0A0E0B1E0ECE4F6
:1000A000F4E000E00BBF02C007900D92AE30B10744
:1000B000D9F721E0AEE0B1E001C01D92AE30B20749
:1000C000E1F7AAD1C1C19CCFAC0190E003C00F926F
:1000D0000F909F5F292F30E024173507C0F3089554
:1000E0000F931F93CF93DF938C01C0E0D0E00DC03E
:1000F0008AEF90E0E9DF8AEF90E0E6DF8AEF90E0B8
:10010000E3DF8AEF90E0E0DF2196C017D10780F3AC
:10011000DF91CF911F910F910895E5E6F0E0808186
:100120008E7F808380818D7F808380818B7F8083A1
:10013000E4E6F0E08081816080838081826080835A
:1001400080818460808314BA8FEF85BB0895E5E6D3
:10015000F0E080818E7F808314BA8FEF85BB808131
:1001600082608083808184608083000000000000C2
:10017000000000000000000000000000000000007F
:10018000000038C0E5E6F0E080818B7F80830000CE
:10019000000000000000000000000000000000005F
:1001A000000000000000000000000000000000004F
:1001B000000000000000000000000000000080813E
:1001C0008460808300000000000000000000000048
:1001D000000000000000000000000000000000001F
:1001E000000000000000000000000000000000000F
:1001F000000000009F99C6CFE5E6F0E080818B7F8C
:1002000080830895CF93C82FA2DFE5E6F0E08081D8
:100210008E7F808380818D7F8083808184608083D6
:100220009FEF94BBC5BB0000000000000000000071
:1002300000000000000000000000000000000000BE
:1002400000000000000000000000000000000000AE
:1002500000000000000080818B7F808314BA95BB72
:10026000CF91089574DF14BA8FEF85BBE5E6F0E017
:1002700080818E7F808380818260808380818460A2
:10028000808300000000000000000000000000006B
:10029000000000000000000000000000000000005E
:1002A000000000000000000000000000000000004E
:1002B000000083B390819B7F90830895CF93C82FD4
:1002C00046DFE5E6F0E080818160808380818D7F7C
:1002D00080838081846080839FEF94BBC5BB0000D6
:1002E000000000000000000000000000000000000E
:1002F00000000000000000000000000000000000FE
:1003000000000000000000000000000000008081EC
:100310008B7F808314BA95BBCF910895623031F002
:10032000633031F0613029F4805C03C08C5E01C021
:100330008C5A806867CF08950F931F93CF93DF93F4
:10034000D82F162F8FDF082F0F77110F110F110FD6
:10035000DD0FDD0FDD0FC0E015C08C2F810F806435
:1003600051DF8D2F90E0A0E0B0E082549F4FAE4F60
:10037000BF4F8C0F911DA11DB11DABBFFC0187911B
:100380009DDFCF5FC83048F3802F80683BDFDF916F
:10039000CF911F910F910895C0DE88E333DF81E094
:1003A00031DF8CE390E09CDE86E02CDF8CE02ADFFE
:1003B00082E028DF80E826DF60E080E0BDDF61E0EA
:1003C00081E0BADF62E082E0B7DF63E083E0B4DFC0
:1003D00064E084E0B1DF65E085E0AEDF66E086E002
:1003E000ABDF67E087E0A8CF08950F931F93CF930B
:1003F000DF93009761F0D62F8C01C0E006C0F801B2
:10040000EC0FF11D80815ADFCF5FCD17C0F3DF9174
:10041000CF911F910F910895BFDF60E080E07EDFF4
:1004200088E44CDF85E64ADF8CE648DF8CE646DF71
:100430008FE644DF61E083E071DF6CE080E091E013
:0C044000D4DF80E090E00895F894FFCF36
:0E044C004D435520576F726C64202121000033
:00000001FF
