S01A000054696D65725F4469676974616C436C6F636B2E7372656300
S113000045C0000061C000005EC000005CC000008C
S11300105AC0000058C0000056C0000054C0000080
S113002052C0000050C000004EC000004CC0000090
S11300304AC0000048C0000046C0000044C00000A0
S113004042C0000040C000003EC000003CC00000B0
S11300503AC0000038C0000036C0000034C00000C0
S113006032C0000030C000002EC000002CC00000D0
S11300702AC0000028C0000026C0000024C00000E0
S113008022C0000020C000001EC0000011241FBEBA
S1130090CFEFD0E1DEBFCDBF11E0A0E0B1E0E0E8FA
S11300A0F2E000E00BBF02C007900D92A231B1074D
S11300B0D9F721E0A2E1B1E001C01D92A531B20758
S11300C0E1F77BD0DBC09CCF1F920F920FB60F924B
S11300D011248F93F8948FEA82BF809112018F5F6D
S11300E0809312018A3561F4809114018B33B0F04E
S11300F0809113018F5F80931301109214010EC03D
S1130100809114018F5F80931401809113018C33CB
S113011018F01092130102C01092120178948F917A
S11301200F900FBE0F901F9018958130B9F0F8F022
S1130130823059F0833021F5E5E6F0E09081907F3C
S1130140908390819760908323C0E5E6F0E09081EE
S1130150907F908390819B6090831AC0E5E6F0E0E5
S11301609081907F908390819D60908311C0E5E69B
S1130170F0E09081907F908390819E60908308C08E
S1130180E5E6F0E09081907F908390819F6090837A
S1130190813061F48091140180FD08C0E62FF0E005
S11301A0E050FF4F8081806883B90895E62FF0E026
S11301B0E050FF4F808183B908958FEF82B913B85F
S11301C08FE0809364008093650087E083BF8FEAAB
S11301D082BF87B7816087BF86B7816086BF789406
S11301E060911401CDEC6C9F812D11248695869528
S11301F08695880F982F990F990F890F681B83E0B4
S113020094DF89EF90E00197F1F700C0000060915E
S113021014016C9F612D112466956695669582E0A4
S113022084DF89EF90E00197F1F700C0000060914E
S113023013016C9F812D1124869586958695880FD0
S1130240982F990F990F890F681B81E06EDF89EF52
S113025090E00197F1F700C00000609113016C9FDA
S1130260612D112466956695669580E05EDF89EFC1
S113027090E00197F1F700C00000B2CFF894FFCFEF
S11302803F065B4F666D7C077F67777C395E7971CB
S10502900880E0
S9030000FC
