:1000000045C0000053C0000051C000004FC00000B8
:100010004DC000004BC0000049C0000047C00000B8
:1000200045C0000043C0000041C000003FC00000C8
:100030003DC000003BC0000039C0000037C00000D8
:1000400047C0000033C0000031C000002FC00000D6
:100050002DC000002BC0000029C0000027C00000F8
:1000600025C0000023C0000021C000001FC0000008
:100070001DC000001BC0000019C0000017C0000018
:1000800015C0000013C0000011C0000011241FBEE5
:10009000CFEFD0E1DEBFCDBF21E0A0E0B1E001C0F5
:1000A0001D92A230B207E1F702D030C0A9CF8FEF86
:1000B00082B987E083BF87EB82BF87B7816087BF44
:1000C00086B7816086BF78948091010183B9FCCFA7
:1000D0001F920F920FB60F9211248F93F89487EB13
:1000E00082BF809100018F5F80930001843639F4D4
:1000F000809101018F5F809301011092000178943B
:100100008F910F900FBE0F901F901895F894FFCF0E
:00000001FF
