:1000000045C0000060C000005EC000005CC0000091
:100010005AC0000058C0000056C0000054C0000084
:1000200052C0000050C000004EC000004CC0000094
:100030004AC0000048C0000046C0000044C00000A4
:1000400042C0000040C000003EC000003CC00000B4
:100050003AC0000038C0000036C0000034C00000C4
:1000600032C0000030C000002EC000002CC00000D4
:100070002AC0000028C0000026C0000024C00000E4
:1000800022C0000020C000001EC0000011241FBEBE
:10009000CFEFD0E1DEBFCDBF11E0A0E0B1E0E8E1FD
:1000A000F5E000E00BBF02C007900D92AC3BB1073A
:1000B000D9F721E0ACEBB1E001C01D92AC3BB20737
:1000C000E1F739D027C29CCFAC0190E003C00F927A
:1000D0000F909F5F292F30E024173507C0F3089554
:1000E0000F931F93CF93DF938C01C0E0D0E00DC03E
:1000F0008AEF90E0E9DF8AEF90E0E6DF8AEF90E0B8
:10010000E3DF8AEF90E0E0DF2196C017D10780F3AC
:10011000DF91CF911F910F9108955D9BFECF8CB918
:100120008BB180628BB908955F9BFECF8CB19BB180
:1001300090689BB90895FF920F931F93CF93DF931D
:10014000CDB7DEB7CB5BD1090FB6F894DEBF0FBEDB
:10015000CDBF8BEBE0E0F1E0DE01119601900D9256
:100160008A95E1F785B7806885BFEDE6F0E080818C
:100170008064808310926C008EEF82B91BB888E196
:100180008AB986E0809395001092900083E089B947
:1001900098D184E690E0A4DF1CB810E002C01F5F95
:1001A000BCDFE1E0F0E0EC0FFD1FE10FF11D80810D
:1001B0008111F5CF10E0B8DF082FAFDF0D3071F0FF
:1001C000113260F4E12FF0E0FE5E008383EC99E0F1
:1001D0000197F1F700C000001F5FEDCF113138F03B
:1001E0000F2EFFEEFF2EF02DF10E10E101C0F12CCD
:1001F00087EA91E60197F1F700C0000000E00CC02B
:10020000E02FF0E0FE5E8081F0D083EC99E0019772
:10021000F1F700C000000F5F011790F361E080E08C
:1002200012D100E00EC0E02FF0E0FE5EE10FF11D04
:100230008081DBD083EC99E00197F1F700C00000EA
:100240000F5F0F1580F380E090E0C554DF4F0FB6CD
:10025000F894DEBF0FBECDBFDF91CF911F910F91FC
:10026000FF90089588B38E7F88BB88B38D7F88BB4D
:1002700088B38B7F88BB87B3816087BB87B382607D
:1002800087BB87B3846087BB11BA8FEF82BB0895A9
:1002900088B38E7F88BB11BA8FEF82BB88B3826030
:1002A00088BB88B3846088BB0000000000000000A9
:1002B000000000000000000000000000000000003E
:1002C00036C088B38B7F88BB0000000000000000B0
:1002D000000000000000000000000000000000001E
:1002E000000000000000000000000000000000000E
:1002F000000000000000000088B3846088BB00009C
:1003000000000000000000000000000000000000ED
:1003100000000000000000000000000000000000DD
:1003200000000000000000000000000000008799AD
:10033000C8CF88B38B7F88BB0895CF93C82FA8DF21
:1003400088B38E7F88BB88B38D7F88BB88B3846079
:1003500088BB9FEF91BBC2BB000000000000000003
:10036000000000000000000000000000000000008D
:10037000000000000000000000000000000000007D
:10038000000000000000000088B38B7F88BB11BA1A
:1003900092BBCF9108957CDF11BA8FEF82BB88B3F7
:1003A0008E7F88BB88B3826088BB88B3846088BB3B
:1003B000000000000000000000000000000000003D
:1003C000000000000000000000000000000000002D
:1003D000000000000000000000000000000000001D
:1003E00080B398B39B7F98BB0895CF93C82F50DFFD
:1003F00088B3816088BB88B38D7F88BB88B38460F5
:1004000088BB9FEF91BBC2BB000000000000000052
:1004100000000000000000000000000000000000DC
:1004200000000000000000000000000000000000CC
:10043000000000000000000088B38B7F88BB11BA69
:1004400092BBCF910895623031F0633031F061306A
:1004500029F4805C03C08C5E01C08C5A80686DCF2B
:1004600008950F931F93CF93DF93D82F162F93DF09
:10047000082F0F77110F110F110FDD0FDD0FDD0F9B
:10048000C0E015C08C2F810F806457DF8D2F90E066
:10049000A0E0B0E082549F4FAE4FBF4F8C0F911D34
:1004A000A11DB11DABBFFC0187919FDFCF5FC8309D
:1004B00048F3802F806841DFDF91CF911F910F912A
:1004C0000895D0DE88E339DF81E037DF8CE390E008
:1004D00007DE86E032DF8CE030DF82E02EDF80E86E
:1004E0002CDF60E080E0BDDF61E081E0BADF62E048
:1004F00082E0B7DF63E083E0B4DF64E084E0B1DF93
:1005000065E085E0AEDF66E086E0ABDF67E087E0D0
:08051000A8CF0895F894FFCF75
:100518000A0D2A2A2A2A2A2A2A2A2A2A2A2A2A2A70
:100528002A2A2A2A2A2A2A2A2A2A2A2A2A2A2A2A23
:100538002A2A2A2A2A2A2A2A0A0D204558542D53BB
:1005480052414D20544553542050726F6772616D6B
:100558002021200A0D20546578744C4344BFA12003
:10056800C3E2B7C2C7D220B5A5C0CCC5B8B8A620CB
:10057800C0D4B7C2C7CFBCBCBFE40A0D2028C1BED7
:10058800B7E1203A20456E746572C5B02C2033322D
:10059800B9D9C0CCC6AE20C0CCB3BB290A0D2A2A13
:1005A8002A2A2A2A2A2A2A2A2A2A2A2A2A2A2A2AA3
:1005B8002A2A2A2A2A2A2A2A2A2A2A2A2A2A2A2A93
:0C05C8002A2A2A2A0A0D203E3E200000AC
:00000001FF
